{
  "contractName": "ProductReview",
  "abi": [
    {
      "inputs": [
        {
          "internalType": "contract PRToken",
          "name": "_tokencontract",
          "type": "address"
        }
      ],
      "payable": false,
      "stateMutability": "nonpayable",
      "type": "constructor"
    },
    {
      "anonymous": false,
      "inputs": [
        {
          "indexed": false,
          "internalType": "uint256",
          "name": "productId",
          "type": "uint256"
        }
      ],
      "name": "ProductRegistered",
      "type": "event"
    },
    {
      "anonymous": false,
      "inputs": [
        {
          "indexed": false,
          "internalType": "uint256",
          "name": "productId",
          "type": "uint256"
        }
      ],
      "name": "ProductRegistrationFailed",
      "type": "event"
    },
    {
      "anonymous": false,
      "inputs": [
        {
          "indexed": false,
          "internalType": "address",
          "name": "_buyer",
          "type": "address"
        },
        {
          "indexed": false,
          "internalType": "uint256",
          "name": "_token",
          "type": "uint256"
        }
      ],
      "name": "sell",
      "type": "event"
    },
    {
      "constant": true,
      "inputs": [
        {
          "internalType": "uint256",
          "name": "",
          "type": "uint256"
        }
      ],
      "name": "Endorsers",
      "outputs": [
        {
          "internalType": "address",
          "name": "",
          "type": "address"
        }
      ],
      "payable": false,
      "stateMutability": "view",
      "type": "function"
    },
    {
      "constant": true,
      "inputs": [],
      "name": "admin",
      "outputs": [
        {
          "internalType": "address",
          "name": "",
          "type": "address"
        }
      ],
      "payable": false,
      "stateMutability": "view",
      "type": "function"
    },
    {
      "constant": true,
      "inputs": [
        {
          "internalType": "uint256",
          "name": "",
          "type": "uint256"
        }
      ],
      "name": "blackListed",
      "outputs": [
        {
          "internalType": "address",
          "name": "",
          "type": "address"
        }
      ],
      "payable": false,
      "stateMutability": "view",
      "type": "function"
    },
    {
      "constant": true,
      "inputs": [],
      "name": "productCount",
      "outputs": [
        {
          "internalType": "uint256",
          "name": "",
          "type": "uint256"
        }
      ],
      "payable": false,
      "stateMutability": "view",
      "type": "function"
    },
    {
      "constant": true,
      "inputs": [
        {
          "internalType": "uint256",
          "name": "",
          "type": "uint256"
        }
      ],
      "name": "products",
      "outputs": [
        {
          "internalType": "uint256",
          "name": "id",
          "type": "uint256"
        },
        {
          "internalType": "string",
          "name": "name",
          "type": "string"
        },
        {
          "internalType": "string",
          "name": "description",
          "type": "string"
        },
        {
          "internalType": "uint256",
          "name": "price",
          "type": "uint256"
        },
        {
          "internalType": "uint256",
          "name": "quantity",
          "type": "uint256"
        },
        {
          "internalType": "address payable",
          "name": "productOwner",
          "type": "address"
        },
        {
          "internalType": "bool",
          "name": "isExist",
          "type": "bool"
        },
        {
          "internalType": "address",
          "name": "rater",
          "type": "address"
        },
        {
          "internalType": "uint256",
          "name": "reviewsCount",
          "type": "uint256"
        }
      ],
      "payable": false,
      "stateMutability": "view",
      "type": "function"
    },
    {
      "constant": true,
      "inputs": [],
      "name": "tokencontract",
      "outputs": [
        {
          "internalType": "contract PRToken",
          "name": "",
          "type": "address"
        }
      ],
      "payable": false,
      "stateMutability": "view",
      "type": "function"
    },
    {
      "constant": false,
      "inputs": [
        {
          "internalType": "uint256",
          "name": "skuId",
          "type": "uint256"
        },
        {
          "internalType": "string",
          "name": "name",
          "type": "string"
        },
        {
          "internalType": "string",
          "name": "description",
          "type": "string"
        },
        {
          "internalType": "uint256",
          "name": "price",
          "type": "uint256"
        },
        {
          "internalType": "uint256",
          "name": "quantity",
          "type": "uint256"
        }
      ],
      "name": "addProduct",
      "outputs": [],
      "payable": false,
      "stateMutability": "nonpayable",
      "type": "function"
    },
    {
      "constant": false,
      "inputs": [
        {
          "internalType": "uint256",
          "name": "skuId",
          "type": "uint256"
        }
      ],
      "name": "buyProduct",
      "outputs": [],
      "payable": true,
      "stateMutability": "payable",
      "type": "function"
    },
    {
      "constant": false,
      "inputs": [
        {
          "internalType": "uint256",
          "name": "skuId",
          "type": "uint256"
        },
        {
          "internalType": "string",
          "name": "review",
          "type": "string"
        }
      ],
      "name": "reviewProduct",
      "outputs": [],
      "payable": false,
      "stateMutability": "nonpayable",
      "type": "function"
    },
    {
      "constant": true,
      "inputs": [
        {
          "internalType": "uint256",
          "name": "skuId",
          "type": "uint256"
        },
        {
          "internalType": "address",
          "name": "user",
          "type": "address"
        }
      ],
      "name": "getReview",
      "outputs": [
        {
          "internalType": "string",
          "name": "review",
          "type": "string"
        }
      ],
      "payable": false,
      "stateMutability": "view",
      "type": "function"
    },
    {
      "constant": true,
      "inputs": [
        {
          "internalType": "uint256",
          "name": "skuId",
          "type": "uint256"
        },
        {
          "internalType": "uint256",
          "name": "index",
          "type": "uint256"
        }
      ],
      "name": "getAReview",
      "outputs": [
        {
          "internalType": "string",
          "name": "review",
          "type": "string"
        },
        {
          "internalType": "address",
          "name": "reviewer",
          "type": "address"
        },
        {
          "internalType": "uint256",
          "name": "upvotes",
          "type": "uint256"
        },
        {
          "internalType": "uint256",
          "name": "downvotes",
          "type": "uint256"
        },
        {
          "internalType": "string",
          "name": "status",
          "type": "string"
        }
      ],
      "payable": false,
      "stateMutability": "view",
      "type": "function"
    },
    {
      "constant": true,
      "inputs": [
        {
          "internalType": "uint256",
          "name": "skuId",
          "type": "uint256"
        }
      ],
      "name": "getReviewsCountOfaProduct",
      "outputs": [
        {
          "internalType": "uint256",
          "name": "",
          "type": "uint256"
        }
      ],
      "payable": false,
      "stateMutability": "view",
      "type": "function"
    },
    {
      "constant": true,
      "inputs": [
        {
          "internalType": "uint256",
          "name": "index",
          "type": "uint256"
        }
      ],
      "name": "getAProduct",
      "outputs": [
        {
          "internalType": "uint256",
          "name": "skuId",
          "type": "uint256"
        },
        {
          "internalType": "string",
          "name": "name",
          "type": "string"
        },
        {
          "internalType": "string",
          "name": "description",
          "type": "string"
        },
        {
          "internalType": "uint256",
          "name": "price",
          "type": "uint256"
        },
        {
          "internalType": "uint256",
          "name": "quantity",
          "type": "uint256"
        }
      ],
      "payable": false,
      "stateMutability": "view",
      "type": "function"
    },
    {
      "constant": false,
      "inputs": [
        {
          "internalType": "uint256",
          "name": "skuId",
          "type": "uint256"
        },
        {
          "internalType": "uint256",
          "name": "reviewId",
          "type": "uint256"
        }
      ],
      "name": "upVote",
      "outputs": [],
      "payable": false,
      "stateMutability": "nonpayable",
      "type": "function"
    },
    {
      "constant": false,
      "inputs": [
        {
          "internalType": "uint256",
          "name": "skuId",
          "type": "uint256"
        },
        {
          "internalType": "uint256",
          "name": "reviewId",
          "type": "uint256"
        }
      ],
      "name": "downVote",
      "outputs": [],
      "payable": false,
      "stateMutability": "nonpayable",
      "type": "function"
    },
    {
      "constant": true,
      "inputs": [
        {
          "internalType": "uint256",
          "name": "skuId",
          "type": "uint256"
        },
        {
          "internalType": "uint256",
          "name": "reviewId",
          "type": "uint256"
        }
      ],
      "name": "getVoteCount",
      "outputs": [
        {
          "internalType": "uint256",
          "name": "upVotes",
          "type": "uint256"
        },
        {
          "internalType": "uint256",
          "name": "downVotes",
          "type": "uint256"
        }
      ],
      "payable": false,
      "stateMutability": "view",
      "type": "function"
    }
  ],
  "bytecode": "0x60806040526103e860055534801561001657600080fd5b506040516124313803806124318339818101604052602081101561003957600080fd5b810190808051906020019092919050505033600460006101000a81548173ffffffffffffffffffffffffffffffffffffffff021916908373ffffffffffffffffffffffffffffffffffffffff16021790555080600160006101000a81548173ffffffffffffffffffffffffffffffffffffffff021916908373ffffffffffffffffffffffffffffffffffffffff16021790555050612355806100dc6000396000f3fe6080604052600436106100f35760003560e01c8063919eff901161008a578063de2e19a011610059578063de2e19a014610951578063e0f6ef87146109b1578063f69539ae146109dc578063f851a44014610b47576100f3565b8063919eff901461077a5780639209aba3146107bf5780639f64dff714610891578063aa7a17ba1461090c576100f3565b806370da6e97116100c657806370da6e97146104f95780637acc0b201461054857806381cf923a146106f55780638642269e1461074c576100f3565b806301db5b48146100f85780632101ff65146102755780634a68996714610349578063654c86a81461047e575b600080fd5b34801561010457600080fd5b50610273600480360360a081101561011b57600080fd5b81019080803590602001909291908035906020019064010000000081111561014257600080fd5b82018360208201111561015457600080fd5b8035906020019184600183028401116401000000008311171561017657600080fd5b91908080601f016020809104026020016040519081016040528093929190818152602001838380828437600081840152601f19601f820116905080830192505050505050509192919290803590602001906401000000008111156101d957600080fd5b8201836020820111156101eb57600080fd5b8035906020019184600183028401116401000000008311171561020d57600080fd5b91908080601f016020809104026020016040519081016040528093929190818152602001838380828437600081840152601f19601f8201169050808301925050505050505091929192908035906020019092919080359060200190929190505050610b9e565b005b34801561028157600080fd5b506102ce6004803603604081101561029857600080fd5b8101908080359060200190929190803573ffffffffffffffffffffffffffffffffffffffff169060200190929190505050610da2565b6040518080602001828103825283818151815260200191508051906020019080838360005b8381101561030e5780820151818401526020810190506102f3565b50505050905090810190601f16801561033b5780820380516001836020036101000a031916815260200191505b509250505060405180910390f35b34801561035557600080fd5b506103826004803603602081101561036c57600080fd5b8101908080359060200190929190505050610e9a565b604051808681526020018060200180602001858152602001848152602001838103835287818151815260200191508051906020019080838360005b838110156103d85780820151818401526020810190506103bd565b50505050905090810190601f1680156104055780820380516001836020036101000a031916815260200191505b50838103825286818151815260200191508051906020019080838360005b8381101561043e578082015181840152602081019050610423565b50505050905090810190601f16801561046b5780820380516001836020036101000a031916815260200191505b5097505050505050505060405180910390f35b34801561048a57600080fd5b506104b7600480360360208110156104a157600080fd5b81019080803590602001909291905050506110c6565b604051808273ffffffffffffffffffffffffffffffffffffffff1673ffffffffffffffffffffffffffffffffffffffff16815260200191505060405180910390f35b34801561050557600080fd5b506105326004803603602081101561051c57600080fd5b8101908080359060200190929190505050611102565b6040518082815260200191505060405180910390f35b34801561055457600080fd5b506105816004803603602081101561056b57600080fd5b8101908080359060200190929190505050611121565b604051808a815260200180602001806020018981526020018881526020018773ffffffffffffffffffffffffffffffffffffffff1673ffffffffffffffffffffffffffffffffffffffff168152602001861515151581526020018573ffffffffffffffffffffffffffffffffffffffff1673ffffffffffffffffffffffffffffffffffffffff16815260200184815260200183810383528b818151815260200191508051906020019080838360005b8381101561064b578082015181840152602081019050610630565b50505050905090810190601f1680156106785780820380516001836020036101000a031916815260200191505b5083810382528a818151815260200191508051906020019080838360005b838110156106b1578082015181840152602081019050610696565b50505050905090810190601f1680156106de5780820380516001836020036101000a031916815260200191505b509b50505050505050505050505060405180910390f35b34801561070157600080fd5b5061070a6112ec565b604051808273ffffffffffffffffffffffffffffffffffffffff1673ffffffffffffffffffffffffffffffffffffffff16815260200191505060405180910390f35b6107786004803603602081101561076257600080fd5b8101908080359060200190929190505050611312565b005b34801561078657600080fd5b506107bd6004803603604081101561079d57600080fd5b8101908080359060200190929190803590602001909291905050506118ae565b005b3480156107cb57600080fd5b5061088f600480360360408110156107e257600080fd5b81019080803590602001909291908035906020019064010000000081111561080957600080fd5b82018360208201111561081b57600080fd5b8035906020019184600183028401116401000000008311171561083d57600080fd5b91908080601f016020809104026020016040519081016040528093929190818152602001838380828437600081840152601f19601f8201169050808301925050505050505091929192905050506118eb565b005b34801561089d57600080fd5b506108ca600480360360208110156108b457600080fd5b8101908080359060200190929190505050611f14565b604051808273ffffffffffffffffffffffffffffffffffffffff1673ffffffffffffffffffffffffffffffffffffffff16815260200191505060405180910390f35b34801561091857600080fd5b5061094f6004803603604081101561092f57600080fd5b810190808035906020019092919080359060200190929190505050611f50565b005b34801561095d57600080fd5b506109946004803603604081101561097457600080fd5b810190808035906020019092919080359060200190929190505050611f8d565b604051808381526020018281526020019250505060405180910390f35b3480156109bd57600080fd5b506109c6611fef565b6040518082815260200191505060405180910390f35b3480156109e857600080fd5b50610a1f600480360360408110156109ff57600080fd5b810190808035906020019092919080359060200190929190505050611ff5565b60405180806020018673ffffffffffffffffffffffffffffffffffffffff1673ffffffffffffffffffffffffffffffffffffffff16815260200185815260200184815260200180602001838103835288818151815260200191508051906020019080838360005b83811015610aa1578082015181840152602081019050610a86565b50505050905090810190601f168015610ace5780820380516001836020036101000a031916815260200191505b50838103825284818151815260200191508051906020019080838360005b83811015610b07578082015181840152602081019050610aec565b50505050905090810190601f168015610b345780820380516001836020036101000a031916815260200191505b5097505050505050505060405180910390f35b348015610b5357600080fd5b50610b5c61222a565b604051808273ffffffffffffffffffffffffffffffffffffffff1673ffffffffffffffffffffffffffffffffffffffff16815260200191505060405180910390f35b6000151560008087815260200190815260200160002060050160149054906101000a900460ff16151514610c3a576040517f08c379a00000000000000000000000000000000000000000000000000000000081526004018080602001828103825260158152602001807f50726f6475637420416c7265616479204164646564000000000000000000000081525060200191505060405180910390fd5b60016003600082825401925050819055508460008087815260200190815260200160002060000181905550836000808781526020019081526020016000206001019080519060200190610c8e929190612250565b50826000808781526020019081526020016000206002019080519060200190610cb8929190612250565b50816000808781526020019081526020016000206003018190555080600080878152602001908152602001600020600401819055503360008087815260200190815260200160002060050160006101000a81548173ffffffffffffffffffffffffffffffffffffffff021916908373ffffffffffffffffffffffffffffffffffffffff160217905550600160008087815260200190815260200160002060050160146101000a81548160ff02191690831515021790555060028590806001815401808255809150509060018203906000526020600020016000909192909190915055505050505050565b606060008084815260200190815260200160002060090160008373ffffffffffffffffffffffffffffffffffffffff1673ffffffffffffffffffffffffffffffffffffffff1681526020019081526020016000206001018054600181600116156101000203166002900480601f016020809104026020016040519081016040528092919081815260200182805460018160011615610100020316600290048015610e8d5780601f10610e6257610100808354040283529160200191610e8d565b820191906000526020600020905b815481529060010190602001808311610e7057829003601f168201915b5050505050905092915050565b600060608060008060008060028881548110610eb257fe5b9060005260206000200154815260200190815260200160002060000154945060008060028881548110610ee157fe5b906000526020600020015481526020019081526020016000206001018054600181600116156101000203166002900480601f016020809104026020016040519081016040528092919081815260200182805460018160011615610100020316600290048015610f915780601f10610f6657610100808354040283529160200191610f91565b820191906000526020600020905b815481529060010190602001808311610f7457829003601f168201915b5050505050935060008060028881548110610fa857fe5b906000526020600020015481526020019081526020016000206002018054600181600116156101000203166002900480601f0160208091040260200160405190810160405280929190818152602001828054600181600116156101000203166002900480156110585780601f1061102d57610100808354040283529160200191611058565b820191906000526020600020905b81548152906001019060200180831161103b57829003601f168201915b505050505092506000806002888154811061106f57fe5b906000526020600020015481526020019081526020016000206003015491506000806002888154811061109e57fe5b9060005260206000200154815260200190815260200160002060040154905091939590929450565b600781815481106110d357fe5b906000526020600020016000915054906101000a900473ffffffffffffffffffffffffffffffffffffffff1681565b6000806000838152602001908152602001600020600801549050919050565b6000602052806000526040600020600091509050806000015490806001018054600181600116156101000203166002900480601f0160208091040260200160405190810160405280929190818152602001828054600181600116156101000203166002900480156111d35780601f106111a8576101008083540402835291602001916111d3565b820191906000526020600020905b8154815290600101906020018083116111b657829003601f168201915b505050505090806002018054600181600116156101000203166002900480601f0160208091040260200160405190810160405280929190818152602001828054600181600116156101000203166002900480156112715780601f1061124657610100808354040283529160200191611271565b820191906000526020600020905b81548152906001019060200180831161125457829003601f168201915b5050505050908060030154908060040154908060050160009054906101000a900473ffffffffffffffffffffffffffffffffffffffff16908060050160149054906101000a900460ff16908060060160009054906101000a900473ffffffffffffffffffffffffffffffffffffffff16908060080154905089565b600160009054906101000a900473ffffffffffffffffffffffffffffffffffffffff1681565b6001151560008083815260200190815260200160002060050160149054906101000a900460ff161515146113ae576040517f08c379a00000000000000000000000000000000000000000000000000000000081526004018080602001828103825260118152602001807f50726f64756374204e6f7420457869737400000000000000000000000000000081525060200191505060405180910390fd5b60008060008381526020019081526020016000206004015411611439576040517f08c379a00000000000000000000000000000000000000000000000000000000081526004018080602001828103825260148152602001807f50726f64756374204f7574206f662053746f636b00000000000000000000000081525060200191505060405180910390fd5b600080828152602001908152602001600020600301543410156114c4576040517f08c379a00000000000000000000000000000000000000000000000000000000081526004018080602001828103825260198152602001807f496e73756666696369656e74204574686572207061737365640000000000000081525060200191505060405180910390fd5b6000806000838152602001908152602001600020600401549050600160008084815260200190815260200160002060090160003373ffffffffffffffffffffffffffffffffffffffff1673ffffffffffffffffffffffffffffffffffffffff16815260200190815260200160002060000160006101000a81548160ff0219169083151502179055506000808381526020019081526020016000206004016000815480929190600190039190505550600080600084815260200190815260200160002060040154820390506000808481526020019081526020016000206003015434111561160a573373ffffffffffffffffffffffffffffffffffffffff166108fc6000808681526020019081526020016000206003015434039081150290604051600060405180830381858888f19350505050158015611608573d6000803e3d6000fd5b505b60008084815260200190815260200160002060050160009054906101000a900473ffffffffffffffffffffffffffffffffffffffff1673ffffffffffffffffffffffffffffffffffffffff166108fc60055460008087815260200190815260200160002060030154039081150290604051600060405180830381858888f1935050505015801561169e573d6000803e3d6000fd5b503373ffffffffffffffffffffffffffffffffffffffff166108fc6005549081150290604051600060405180830381858888f193505050501580156116e7573d6000803e3d6000fd5b50600160009054906101000a900473ffffffffffffffffffffffffffffffffffffffff1673ffffffffffffffffffffffffffffffffffffffff1663a9059cbb33836040518363ffffffff1660e01b8152600401808373ffffffffffffffffffffffffffffffffffffffff1673ffffffffffffffffffffffffffffffffffffffff16815260200182815260200192505050602060405180830381600087803b15801561179157600080fd5b505af11580156117a5573d6000803e3d6000fd5b505050506040513d60208110156117bb57600080fd5b810190808051906020019092919050505061183e576040517f08c379a00000000000000000000000000000000000000000000000000000000081526004018080602001828103825260188152602001807f7472616e7366657272656420556e7375636365737366756c000000000000000081525060200191505060405180910390fd5b7f6c197ff5fb3c0793d2ced16096dc40420539c99ae6f83b0c62bea63dab16ac6b3382604051808373ffffffffffffffffffffffffffffffffffffffff1673ffffffffffffffffffffffffffffffffffffffff1681526020018281526020019250505060405180910390a1505050565b600080838152602001908152602001600020600a016000828152602001908152602001600020600101600081548092919060010191905055505050565b600160009054906101000a900473ffffffffffffffffffffffffffffffffffffffff1673ffffffffffffffffffffffffffffffffffffffff1663d9caf0303360016040518363ffffffff1660e01b8152600401808373ffffffffffffffffffffffffffffffffffffffff1673ffffffffffffffffffffffffffffffffffffffff16815260200182815260200192505050602060405180830381600087803b15801561199557600080fd5b505af11580156119a9573d6000803e3d6000fd5b505050506040513d60208110156119bf57600080fd5b8101908080519060200190929190505050611a42576040517f08c379a00000000000000000000000000000000000000000000000000000000081526004018080602001828103825260128152602001807f546f6b656e20636865636b206661696c6564000000000000000000000000000081525060200191505060405180910390fd5b6001151560008084815260200190815260200160002060050160149054906101000a900460ff16151514611ade576040517f08c379a00000000000000000000000000000000000000000000000000000000081526004018080602001828103825260118152602001807f50726f64756374204e6f7420457869737400000000000000000000000000000081525060200191505060405180910390fd5b6001151560008084815260200190815260200160002060090160003373ffffffffffffffffffffffffffffffffffffffff1673ffffffffffffffffffffffffffffffffffffffff16815260200190815260200160002060000160009054906101000a900460ff16151514611b9d576040517f08c379a000000000000000000000000000000000000000000000000000000000815260040180806020018281038252602b8152602001806122f6602b913960400191505060405180910390fd5b6000151560008084815260200190815260200160002060090160003373ffffffffffffffffffffffffffffffffffffffff1673ffffffffffffffffffffffffffffffffffffffff16815260200190815260200160002060000160019054906101000a90505050600160008084815260200190815260200160002060090160003373ffffffffffffffffffffffffffffffffffffffff1673ffffffffffffffffffffffffffffffffffffffff16815260200190815260200160002060000160016101000a81548160ff0219169083151502179055508060008084815260200190815260200160002060090160003373ffffffffffffffffffffffffffffffffffffffff1673ffffffffffffffffffffffffffffffffffffffff1681526020019081526020016000206001019080519060200190611cda929190612250565b504260008084815260200190815260200160002060090160003373ffffffffffffffffffffffffffffffffffffffff1673ffffffffffffffffffffffffffffffffffffffff168152602001908152602001600020600201819055503360008084815260200190815260200160002060060160006101000a81548173ffffffffffffffffffffffffffffffffffffffff021916908373ffffffffffffffffffffffffffffffffffffffff160217905550600080838152602001908152602001600020600701819080600181540180825580915050906001820390600052602060002001600090919290919091509080519060200190611dd9929190612250565b50506040518060400160405280600781526020017f70656e64696e6700000000000000000000000000000000000000000000000000815250600080848152602001908152602001600020600a0160008060008681526020019081526020016000206008015481526020019081526020016000206000019080519060200190611e62929190612250565b506000806000848152602001908152602001600020600a016000806000868152602001908152602001600020600801548152602001908152602001600020600101819055506000806000848152602001908152602001600020600a01600080600086815260200190815260200160002060080154815260200190815260200160002060020181905550600080838152602001908152602001600020600801600081548092919060010191905055505050565b60068181548110611f2157fe5b906000526020600020016000915054906101000a900473ffffffffffffffffffffffffffffffffffffffff1681565b600080838152602001908152602001600020600a016000828152602001908152602001600020600201600081548092919060010191905055505050565b600080600080858152602001908152602001600020600a016000848152602001908152602001600020600101549150600080858152602001908152602001600020600a0160008481526020019081526020016000206002015490509250929050565b60035481565b606060008060006060600080888152602001908152602001600020600701868154811061201e57fe5b906000526020600020018054600181600116156101000203166002900480601f0160208091040260200160405190810160405280929190818152602001828054600181600116156101000203166002900480156120bc5780601f10612091576101008083540402835291602001916120bc565b820191906000526020600020905b81548152906001019060200180831161209f57829003601f168201915b5050505050945060008088815260200190815260200160002060060160009054906101000a900473ffffffffffffffffffffffffffffffffffffffff169350600080888152602001908152602001600020600a016000600188018152602001908152602001600020600101549250600080888152602001908152602001600020600a016000600188018152602001908152602001600020600201549150600080888152602001908152602001600020600a0160006001880181526020019081526020016000206000018054600181600116156101000203166002900480601f0160208091040260200160405190810160405280929190818152602001828054600181600116156101000203166002900480156122195780601f106121ee57610100808354040283529160200191612219565b820191906000526020600020905b8154815290600101906020018083116121fc57829003601f168201915b505050505090509295509295909350565b600460009054906101000a900473ffffffffffffffffffffffffffffffffffffffff1681565b828054600181600116156101000203166002900490600052602060002090601f016020900481019282601f1061229157805160ff19168380011785556122bf565b828001600101855582156122bf579182015b828111156122be5782518255916020019190600101906122a3565b5b5090506122cc91906122d0565b5090565b6122f291905b808211156122ee5760008160009055506001016122d6565b5090565b9056fe596f7520617265206e6f7420656c696769626c6520746f2072657669657720746869732070726f64756374a265627a7a72315820af174cdf401e5c087abdbf15a3110c4491eb520f64f0ecace4b92ecf01eec35664736f6c634300050c0032",
  "source": "pragma solidity >=0.4.0 <=0.6.0;\nimport \"./PRToken.sol\";\n\n\ncontract ProductReview {\n    \n    struct Status {\n        bool isBuy;\n        bool isReview;\n        string reviewDescription;\n        uint timeStamp;\n    }\n\n    struct EndorseValue{\n         string status;\n         uint upVoteCount;\n         uint downVoteCount;\n         address[] upVoters;\n         address[] downVoters;\n    }\n    \n    struct Product {\n        uint id;\n        string name;\n        string description;\n        uint price;\n        uint quantity;\n        address payable productOwner;\n        bool isExist;\n        address rater; //address of reviewer\n        string [] reviews;\n        uint reviewsCount;\n        mapping (address=>Status) productUserReview; //store the status of buyer\n        mapping (uint=>EndorseValue) endorse_value;\n    }\n\n    mapping (uint=>Product) public products;\n\n    PRToken public tokencontract;\n    uint[] productIds;\n    uint public productCount;\n    address public admin;\n    uint reviewReturn = 1000;\n\n     //for endorse\n     address[] public blackListed;\n     address[] public Endorsers;\n     //end for endorse\n\n    modifier onlyAdmin() {\n        require(msg.sender == admin);\n        _;\n    }\n\n    constructor(PRToken _tokencontract) public{\n      admin = msg.sender;\n      tokencontract = PRToken(_tokencontract); \n    }\n    \n    event sell(address _buyer, uint256 _token);\n    event ProductRegistered(uint256 productId);\n    event ProductRegistrationFailed(uint256 productId);\n\n    function addProduct(uint skuId, string memory name, string memory description, uint price, uint quantity) public\n    {\n        require(products[skuId].isExist == false, \"Product Already Added\");\n        productCount+=1;\n        products[skuId].id = skuId;\n        products[skuId].name = name;\n        products[skuId].description = description;\n        products[skuId].price = price;\n        products[skuId].quantity = quantity;\n        products[skuId].productOwner = msg.sender;\n        products[skuId].isExist = true;\n        productIds.push(skuId);\n        \n    }\n    \n    function buyProduct(uint skuId) public payable\n    {\n           require(products[skuId].isExist == true, \"Product Not Exist\");\n           require(products[skuId].quantity > 0, \"Product Out of Stock\");\n           require (msg.value >= products[skuId].price , \"Insufficient Ether passed\");\n           \n           uint x=products[skuId].quantity;\n           products[skuId].productUserReview[msg.sender].isBuy = true;\n           products[skuId].quantity--;\n           uint diff=x-products[skuId].quantity;\n           \n            if(msg.value > products[skuId].price)\n            {\n                msg.sender.transfer(msg.value - products[skuId].price); //extra ammount transferred\n            }\n            products[skuId].productOwner.transfer(products[skuId].price-reviewReturn); //Product price transferred to seller\"\n              msg.sender.transfer(reviewReturn); //1000 weis returned to buyer\"   \n              require(tokencontract.transfer(msg.sender,diff),\"transferred Unsuccessful\");\n              emit sell (msg.sender , diff);\n            \n           \n    }\n    \n    function reviewProduct(uint skuId, string memory review) public\n    {\n           require(tokencontract.reviewtoken(msg.sender,1), \"Token check failed\"); //reviewer possess token to review\n           require(products[skuId].isExist == true, \"Product Not Exist\");\n           require(products[skuId].productUserReview[msg.sender].isBuy == true, \"You are not eligible to review this product\");\n           products[skuId].productUserReview[msg.sender].isReview == false;\n          // require(products[skuId].productUserReview[msg.sender].isReview == false, \"You have Already reviewed this product\");\n             \n           products[skuId].productUserReview[msg.sender].isReview = true;\n           products[skuId].productUserReview[msg.sender].reviewDescription = review;\n           products[skuId].productUserReview[msg.sender].timeStamp = now;\n           //tokencontract.reviewed();\n\n           products[skuId].rater = msg.sender;\n              products[skuId].reviews.push(review);\n           // require(tokencontract.burn(1), \"Burning failed\");\n\n           //for endorse\n           //we will have three statuses [pending,approved,rejected]\n           products[skuId].endorse_value[products[skuId].reviewsCount].status = \"pending\";\n           products[skuId].endorse_value[products[skuId].reviewsCount].upVoteCount = 0;\n           products[skuId].endorse_value[products[skuId].reviewsCount].downVoteCount = 0;\n           //end for endorse\n\n           products[skuId].reviewsCount ++;\n\n    }\n    \n    function getReview(uint skuId, address user) public view returns (string memory review)\n    {\n       return products[skuId].productUserReview[user].reviewDescription;\n    }\n    \n    function getAReview(uint skuId, uint index) public view returns (string memory review, address reviewer,uint upvotes,uint downvotes,string memory status)\n    {\n       review = products[skuId].reviews[index];\n       reviewer = products[skuId].rater;\n       upvotes = products[skuId].endorse_value[index + 1].upVoteCount;\n       downvotes = products[skuId].endorse_value[index + 1].downVoteCount;\n       status = products[skuId].endorse_value[index + 1].status;\n    }\n\n    function getReviewsCountOfaProduct(uint skuId) public view returns (uint)\n    {\n       return products[skuId].reviewsCount;\n    }\n\n    function getAProduct(uint index) public view returns (uint skuId, string memory name, string memory description, uint256 price, uint256 quantity)\n    {\n       skuId = products[productIds[index]].id;\n       name = products[productIds[index]].name;\n       description = products[productIds[index]].description;\n       price = products[productIds[index]].price;\n       quantity = products[productIds[index]].quantity;\n       \n    }\n\n    function upVote(uint skuId,uint reviewId) public {\n         products[skuId].endorse_value[reviewId].upVoteCount++;\n    }\n\n    function downVote(uint skuId,uint reviewId) public{\n         products[skuId].endorse_value[reviewId].downVoteCount++;\n    }\n\n    function getVoteCount(uint skuId,uint reviewId) public view returns (uint upVotes,uint downVotes)\n     {\n        upVotes = products[skuId].endorse_value[reviewId].upVoteCount;\n        downVotes = products[skuId].endorse_value[reviewId].downVoteCount;\n     }\n    \n }",
  "sourcePath": "E:/block/Ethereum-based-review-system/contracts/ProductReview.sol",
  "compiler": {
    "name": "solc",
    "version": "0.5.12+commit.7709ece9.Emscripten.clang"
  },
  "schemaVersion": "3.0.19",
  "updatedAt": "2019-12-06T20:17:35.880Z",
  "networkType": "ethereum",
  "devdoc": {
    "methods": {}
  },
  "userdoc": {
    "methods": {}
  }
}