{
  "contractName": "ProductReview",
  "abi": [
    {
      "constant": true,
      "inputs": [
        {
          "name": "",
          "type": "uint256"
        }
      ],
      "name": "products",
      "outputs": [
        {
          "name": "id",
          "type": "uint256"
        },
        {
          "name": "name",
          "type": "string"
        },
        {
          "name": "description",
          "type": "string"
        },
        {
          "name": "price",
          "type": "uint256"
        },
        {
          "name": "quantity",
          "type": "uint256"
        },
        {
          "name": "productOwner",
          "type": "address"
        },
        {
          "name": "isExist",
          "type": "bool"
        },
        {
          "name": "rater",
          "type": "address"
        },
        {
          "name": "reviewsCount",
          "type": "uint256"
        }
      ],
      "payable": false,
      "stateMutability": "view",
      "type": "function"
    },
    {
      "constant": true,
      "inputs": [],
      "name": "tokencontract",
      "outputs": [
        {
          "name": "",
          "type": "address"
        }
      ],
      "payable": false,
      "stateMutability": "view",
      "type": "function"
    },
    {
      "constant": true,
      "inputs": [],
      "name": "productCount",
      "outputs": [
        {
          "name": "",
          "type": "uint256"
        }
      ],
      "payable": false,
      "stateMutability": "view",
      "type": "function"
    },
    {
      "constant": true,
      "inputs": [],
      "name": "admin",
      "outputs": [
        {
          "name": "",
          "type": "address"
        }
      ],
      "payable": false,
      "stateMutability": "view",
      "type": "function"
    },
    {
      "inputs": [
        {
          "name": "_tokencontract",
          "type": "address"
        }
      ],
      "payable": false,
      "stateMutability": "nonpayable",
      "type": "constructor"
    },
    {
      "anonymous": false,
      "inputs": [
        {
          "indexed": false,
          "name": "_buyer",
          "type": "address"
        },
        {
          "indexed": false,
          "name": "_token",
          "type": "uint256"
        }
      ],
      "name": "sell",
      "type": "event"
    },
    {
      "anonymous": false,
      "inputs": [
        {
          "indexed": false,
          "name": "productId",
          "type": "uint256"
        }
      ],
      "name": "ProductRegistered",
      "type": "event"
    },
    {
      "anonymous": false,
      "inputs": [
        {
          "indexed": false,
          "name": "productId",
          "type": "uint256"
        }
      ],
      "name": "ProductRegistrationFailed",
      "type": "event"
    },
    {
      "constant": false,
      "inputs": [
        {
          "name": "skuId",
          "type": "uint256"
        },
        {
          "name": "name",
          "type": "string"
        },
        {
          "name": "description",
          "type": "string"
        },
        {
          "name": "price",
          "type": "uint256"
        },
        {
          "name": "quantity",
          "type": "uint256"
        }
      ],
      "name": "addProduct",
      "outputs": [],
      "payable": false,
      "stateMutability": "nonpayable",
      "type": "function"
    },
    {
      "constant": false,
      "inputs": [
        {
          "name": "skuId",
          "type": "uint256"
        }
      ],
      "name": "buyProduct",
      "outputs": [],
      "payable": true,
      "stateMutability": "payable",
      "type": "function"
    },
    {
      "constant": false,
      "inputs": [
        {
          "name": "skuId",
          "type": "uint256"
        },
        {
          "name": "review",
          "type": "string"
        }
      ],
      "name": "reviewProduct",
      "outputs": [],
      "payable": false,
      "stateMutability": "nonpayable",
      "type": "function"
    },
    {
      "constant": true,
      "inputs": [
        {
          "name": "skuId",
          "type": "uint256"
        },
        {
          "name": "user",
          "type": "address"
        }
      ],
      "name": "getReview",
      "outputs": [
        {
          "name": "review",
          "type": "string"
        }
      ],
      "payable": false,
      "stateMutability": "view",
      "type": "function"
    },
    {
      "constant": true,
      "inputs": [
        {
          "name": "skuId",
          "type": "uint256"
        },
        {
          "name": "index",
          "type": "uint256"
        }
      ],
      "name": "getAReview",
      "outputs": [
        {
          "name": "review",
          "type": "string"
        },
        {
          "name": "reviewer",
          "type": "address"
        }
      ],
      "payable": false,
      "stateMutability": "view",
      "type": "function"
    },
    {
      "constant": true,
      "inputs": [
        {
          "name": "skuId",
          "type": "uint256"
        }
      ],
      "name": "getReviewsCountOfaProduct",
      "outputs": [
        {
          "name": "",
          "type": "uint256"
        }
      ],
      "payable": false,
      "stateMutability": "view",
      "type": "function"
    },
    {
      "constant": true,
      "inputs": [
        {
          "name": "index",
          "type": "uint256"
        }
      ],
      "name": "getAProduct",
      "outputs": [
        {
          "name": "skuId",
          "type": "uint256"
        },
        {
          "name": "name",
          "type": "string"
        },
        {
          "name": "description",
          "type": "string"
        },
        {
          "name": "price",
          "type": "uint256"
        },
        {
          "name": "quantity",
          "type": "uint256"
        }
      ],
      "payable": false,
      "stateMutability": "view",
      "type": "function"
    }
  ],
  "bytecode": "0x60806040526103e860055534801561001657600080fd5b50604051602080611e2c8339810180604052602081101561003657600080fd5b810190808051906020019092919050505033600460006101000a81548173ffffffffffffffffffffffffffffffffffffffff021916908373ffffffffffffffffffffffffffffffffffffffff16021790555080600160006101000a81548173ffffffffffffffffffffffffffffffffffffffff021916908373ffffffffffffffffffffffffffffffffffffffff16021790555050611d53806100d96000396000f3fe60806040526004361061009c5760003560e01c806381cf923a1161006457806381cf923a146106235780638642269e1461067a5780639209aba3146106a8578063e0f6ef871461077a578063f69539ae146107a5578063f851a440146108965761009c565b806301db5b48146100a15780632101ff651461021e5780634a689967146102f257806370da6e97146104275780637acc0b2014610476575b600080fd5b3480156100ad57600080fd5b5061021c600480360360a08110156100c457600080fd5b8101908080359060200190929190803590602001906401000000008111156100eb57600080fd5b8201836020820111156100fd57600080fd5b8035906020019184600183028401116401000000008311171561011f57600080fd5b91908080601f016020809104026020016040519081016040528093929190818152602001838380828437600081840152601f19601f8201169050808301925050505050505091929192908035906020019064010000000081111561018257600080fd5b82018360208201111561019457600080fd5b803590602001918460018302840111640100000000831117156101b657600080fd5b91908080601f016020809104026020016040519081016040528093929190818152602001838380828437600081840152601f19601f82011690508083019250505050505050919291929080359060200190929190803590602001909291905050506108ed565b005b34801561022a57600080fd5b506102776004803603604081101561024157600080fd5b8101908080359060200190929190803573ffffffffffffffffffffffffffffffffffffffff169060200190929190505050610af1565b6040518080602001828103825283818151815260200191508051906020019080838360005b838110156102b757808201518184015260208101905061029c565b50505050905090810190601f1680156102e45780820380516001836020036101000a031916815260200191505b509250505060405180910390f35b3480156102fe57600080fd5b5061032b6004803603602081101561031557600080fd5b8101908080359060200190929190505050610be9565b604051808681526020018060200180602001858152602001848152602001838103835287818151815260200191508051906020019080838360005b83811015610381578082015181840152602081019050610366565b50505050905090810190601f1680156103ae5780820380516001836020036101000a031916815260200191505b50838103825286818151815260200191508051906020019080838360005b838110156103e75780820151818401526020810190506103cc565b50505050905090810190601f1680156104145780820380516001836020036101000a031916815260200191505b5097505050505050505060405180910390f35b34801561043357600080fd5b506104606004803603602081101561044a57600080fd5b8101908080359060200190929190505050610e15565b6040518082815260200191505060405180910390f35b34801561048257600080fd5b506104af6004803603602081101561049957600080fd5b8101908080359060200190929190505050610e34565b604051808a815260200180602001806020018981526020018881526020018773ffffffffffffffffffffffffffffffffffffffff1673ffffffffffffffffffffffffffffffffffffffff168152602001861515151581526020018573ffffffffffffffffffffffffffffffffffffffff1673ffffffffffffffffffffffffffffffffffffffff16815260200184815260200183810383528b818151815260200191508051906020019080838360005b8381101561057957808201518184015260208101905061055e565b50505050905090810190601f1680156105a65780820380516001836020036101000a031916815260200191505b5083810382528a818151815260200191508051906020019080838360005b838110156105df5780820151818401526020810190506105c4565b50505050905090810190601f16801561060c5780820380516001836020036101000a031916815260200191505b509b50505050505050505050505060405180910390f35b34801561062f57600080fd5b50610638610fff565b604051808273ffffffffffffffffffffffffffffffffffffffff1673ffffffffffffffffffffffffffffffffffffffff16815260200191505060405180910390f35b6106a66004803603602081101561069057600080fd5b8101908080359060200190929190505050611025565b005b3480156106b457600080fd5b50610778600480360360408110156106cb57600080fd5b8101908080359060200190929190803590602001906401000000008111156106f257600080fd5b82018360208201111561070457600080fd5b8035906020019184600183028401116401000000008311171561072657600080fd5b91908080601f016020809104026020016040519081016040528093929190818152602001838380828437600081840152601f19601f82011690508083019250505050505050919291929050505061158b565b005b34801561078657600080fd5b5061078f611afd565b6040518082815260200191505060405180910390f35b3480156107b157600080fd5b506107e8600480360360408110156107c857600080fd5b810190808035906020019092919080359060200190929190505050611b03565b60405180806020018373ffffffffffffffffffffffffffffffffffffffff1673ffffffffffffffffffffffffffffffffffffffff168152602001828103825284818151815260200191508051906020019080838360005b8381101561085a57808201518184015260208101905061083f565b50505050905090810190601f1680156108875780820380516001836020036101000a031916815260200191505b50935050505060405180910390f35b3480156108a257600080fd5b506108ab611c0b565b604051808273ffffffffffffffffffffffffffffffffffffffff1673ffffffffffffffffffffffffffffffffffffffff16815260200191505060405180910390f35b6000151560008087815260200190815260200160002060050160149054906101000a900460ff16151514610989576040517f08c379a00000000000000000000000000000000000000000000000000000000081526004018080602001828103825260158152602001807f50726f6475637420416c7265616479204164646564000000000000000000000081525060200191505060405180910390fd5b600160036000828254019250508190555084600080878152602001908152602001600020600001819055508360008087815260200190815260200160002060010190805190602001906109dd929190611c31565b50826000808781526020019081526020016000206002019080519060200190610a07929190611c31565b50816000808781526020019081526020016000206003018190555080600080878152602001908152602001600020600401819055503360008087815260200190815260200160002060050160006101000a81548173ffffffffffffffffffffffffffffffffffffffff021916908373ffffffffffffffffffffffffffffffffffffffff160217905550600160008087815260200190815260200160002060050160146101000a81548160ff02191690831515021790555060028590806001815401808255809150509060018203906000526020600020016000909192909190915055505050505050565b606060008084815260200190815260200160002060090160008373ffffffffffffffffffffffffffffffffffffffff1673ffffffffffffffffffffffffffffffffffffffff1681526020019081526020016000206001018054600181600116156101000203166002900480601f016020809104026020016040519081016040528092919081815260200182805460018160011615610100020316600290048015610bdc5780601f10610bb157610100808354040283529160200191610bdc565b820191906000526020600020905b815481529060010190602001808311610bbf57829003601f168201915b5050505050905092915050565b600060608060008060008060028881548110610c0157fe5b9060005260206000200154815260200190815260200160002060000154945060008060028881548110610c3057fe5b906000526020600020015481526020019081526020016000206001018054600181600116156101000203166002900480601f016020809104026020016040519081016040528092919081815260200182805460018160011615610100020316600290048015610ce05780601f10610cb557610100808354040283529160200191610ce0565b820191906000526020600020905b815481529060010190602001808311610cc357829003601f168201915b5050505050935060008060028881548110610cf757fe5b906000526020600020015481526020019081526020016000206002018054600181600116156101000203166002900480601f016020809104026020016040519081016040528092919081815260200182805460018160011615610100020316600290048015610da75780601f10610d7c57610100808354040283529160200191610da7565b820191906000526020600020905b815481529060010190602001808311610d8a57829003601f168201915b5050505050925060008060028881548110610dbe57fe5b9060005260206000200154815260200190815260200160002060030154915060008060028881548110610ded57fe5b9060005260206000200154815260200190815260200160002060040154905091939590929450565b6000806000838152602001908152602001600020600801549050919050565b6000602052806000526040600020600091509050806000015490806001018054600181600116156101000203166002900480601f016020809104026020016040519081016040528092919081815260200182805460018160011615610100020316600290048015610ee65780601f10610ebb57610100808354040283529160200191610ee6565b820191906000526020600020905b815481529060010190602001808311610ec957829003601f168201915b505050505090806002018054600181600116156101000203166002900480601f016020809104026020016040519081016040528092919081815260200182805460018160011615610100020316600290048015610f845780601f10610f5957610100808354040283529160200191610f84565b820191906000526020600020905b815481529060010190602001808311610f6757829003601f168201915b5050505050908060030154908060040154908060050160009054906101000a900473ffffffffffffffffffffffffffffffffffffffff16908060050160149054906101000a900460ff16908060060160009054906101000a900473ffffffffffffffffffffffffffffffffffffffff16908060080154905089565b600160009054906101000a900473ffffffffffffffffffffffffffffffffffffffff1681565b6001151560008083815260200190815260200160002060050160149054906101000a900460ff161515146110c1576040517f08c379a00000000000000000000000000000000000000000000000000000000081526004018080602001828103825260118152602001807f50726f64756374204e6f7420457869737400000000000000000000000000000081525060200191505060405180910390fd5b6000806000838152602001908152602001600020600401541161114c576040517f08c379a00000000000000000000000000000000000000000000000000000000081526004018080602001828103825260148152602001807f50726f64756374204f7574206f662053746f636b00000000000000000000000081525060200191505060405180910390fd5b600080828152602001908152602001600020600301543410156111d7576040517f08c379a00000000000000000000000000000000000000000000000000000000081526004018080602001828103825260198152602001807f496e73756666696369656e74204574686572207061737365640000000000000081525060200191505060405180910390fd5b600160008083815260200190815260200160002060090160003373ffffffffffffffffffffffffffffffffffffffff1673ffffffffffffffffffffffffffffffffffffffff16815260200190815260200160002060000160006101000a81548160ff0219169083151502179055506000808281526020019081526020016000206004016000815480929190600190039190505550600080828152602001908152602001600020600301543411156112e7573373ffffffffffffffffffffffffffffffffffffffff166108fc6000808481526020019081526020016000206003015434039081150290604051600060405180830381858888f193505050501580156112e5573d6000803e3d6000fd5b505b60008082815260200190815260200160002060050160009054906101000a900473ffffffffffffffffffffffffffffffffffffffff1673ffffffffffffffffffffffffffffffffffffffff166108fc60055460008085815260200190815260200160002060030154039081150290604051600060405180830381858888f1935050505015801561137b573d6000803e3d6000fd5b503373ffffffffffffffffffffffffffffffffffffffff166108fc6005549081150290604051600060405180830381858888f193505050501580156113c4573d6000803e3d6000fd5b50600160009054906101000a900473ffffffffffffffffffffffffffffffffffffffff1673ffffffffffffffffffffffffffffffffffffffff1663a9059cbb3360016040518363ffffffff1660e01b8152600401808373ffffffffffffffffffffffffffffffffffffffff1673ffffffffffffffffffffffffffffffffffffffff16815260200182815260200192505050602060405180830381600087803b15801561146f57600080fd5b505af1158015611483573d6000803e3d6000fd5b505050506040513d602081101561149957600080fd5b810190808051906020019092919050505061151c576040517f08c379a00000000000000000000000000000000000000000000000000000000081526004018080602001828103825260188152602001807f7472616e7366657272656420556e7375636365737366756c000000000000000081525060200191505060405180910390fd5b7f6c197ff5fb3c0793d2ced16096dc40420539c99ae6f83b0c62bea63dab16ac6b336001604051808373ffffffffffffffffffffffffffffffffffffffff1673ffffffffffffffffffffffffffffffffffffffff1681526020018281526020019250505060405180910390a150565b600160009054906101000a900473ffffffffffffffffffffffffffffffffffffffff1673ffffffffffffffffffffffffffffffffffffffff1663d9caf0303360016040518363ffffffff1660e01b8152600401808373ffffffffffffffffffffffffffffffffffffffff1673ffffffffffffffffffffffffffffffffffffffff16815260200182815260200192505050602060405180830381600087803b15801561163557600080fd5b505af1158015611649573d6000803e3d6000fd5b505050506040513d602081101561165f57600080fd5b81019080805190602001909291905050506116e2576040517f08c379a00000000000000000000000000000000000000000000000000000000081526004018080602001828103825260128152602001807f546f6b656e20636865636b206661696c6564000000000000000000000000000081525060200191505060405180910390fd5b6001151560008084815260200190815260200160002060050160149054906101000a900460ff1615151461177e576040517f08c379a00000000000000000000000000000000000000000000000000000000081526004018080602001828103825260118152602001807f50726f64756374204e6f7420457869737400000000000000000000000000000081525060200191505060405180910390fd5b6001151560008084815260200190815260200160002060090160003373ffffffffffffffffffffffffffffffffffffffff1673ffffffffffffffffffffffffffffffffffffffff16815260200190815260200160002060000160009054906101000a900460ff1615151461183d576040517f08c379a000000000000000000000000000000000000000000000000000000000815260040180806020018281038252602b815260200180611cd7602b913960400191505060405180910390fd5b6000151560008084815260200190815260200160002060090160003373ffffffffffffffffffffffffffffffffffffffff1673ffffffffffffffffffffffffffffffffffffffff16815260200190815260200160002060000160019054906101000a900460ff161515146118fc576040517f08c379a0000000000000000000000000000000000000000000000000000000008152600401808060200182810382526026815260200180611d026026913960400191505060405180910390fd5b600160008084815260200190815260200160002060090160003373ffffffffffffffffffffffffffffffffffffffff1673ffffffffffffffffffffffffffffffffffffffff16815260200190815260200160002060000160016101000a81548160ff0219169083151502179055508060008084815260200190815260200160002060090160003373ffffffffffffffffffffffffffffffffffffffff1673ffffffffffffffffffffffffffffffffffffffff16815260200190815260200160002060010190805190602001906119d3929190611c31565b504260008084815260200190815260200160002060090160003373ffffffffffffffffffffffffffffffffffffffff1673ffffffffffffffffffffffffffffffffffffffff16815260200190815260200160002060020181905550600080838152602001908152602001600020600801600081548092919060010191905055503360008084815260200190815260200160002060060160006101000a81548173ffffffffffffffffffffffffffffffffffffffff021916908373ffffffffffffffffffffffffffffffffffffffff160217905550600080838152602001908152602001600020600701819080600181540180825580915050906001820390600052602060002001600090919290919091509080519060200190611af7929190611c31565b50505050565b60035481565b606060008060008581526020019081526020016000206007018381548110611b2757fe5b906000526020600020018054600181600116156101000203166002900480601f016020809104026020016040519081016040528092919081815260200182805460018160011615610100020316600290048015611bc55780601f10611b9a57610100808354040283529160200191611bc5565b820191906000526020600020905b815481529060010190602001808311611ba857829003601f168201915b5050505050915060008085815260200190815260200160002060060160009054906101000a900473ffffffffffffffffffffffffffffffffffffffff1690509250929050565b600460009054906101000a900473ffffffffffffffffffffffffffffffffffffffff1681565b828054600181600116156101000203166002900490600052602060002090601f016020900481019282601f10611c7257805160ff1916838001178555611ca0565b82800160010185558215611ca0579182015b82811115611c9f578251825591602001919060010190611c84565b5b509050611cad9190611cb1565b5090565b611cd391905b80821115611ccf576000816000905550600101611cb7565b5090565b9056fe596f7520617265206e6f7420656c696769626c6520746f2072657669657720746869732070726f64756374596f75206861766520416c726561647920726576696577656420746869732070726f64756374a165627a7a72305820469adb844c01e86a9dcbe8ee634accac7c1571e1cea15d14fb19f386138a2eeb0029",
  "source": "pragma solidity >=0.4.0 <=0.6.0;\nimport \"./PRToken.sol\";\n\n\ncontract ProductReview {\n    \n    struct Status {\n        \n        bool isBuy;\n        bool isReview;\n        string reviewDescription;\n        uint timeStamp;\n    }\n\n    \n    struct Product {\n        uint id;\n        string name;\n        string description;\n        uint price;\n        uint quantity;\n        address payable productOwner;\n        bool isExist;\n        address rater; //address of reviewer\n        string [] reviews;\n        uint reviewsCount;\n        mapping (address=>Status) productUserReview; //store the status of buyer\n    }\n\n    mapping (uint=>Product) public products;\n\n    PRToken public tokencontract;\n    uint[] productIds;\n    uint public productCount;\n    address public admin;\n    uint reviewReturn = 1000;\n\n    modifier onlyAdmin() {\n        require(msg.sender == admin);\n        _;\n    }\n\n    constructor(PRToken _tokencontract) public{\n      admin = msg.sender;\n      tokencontract = PRToken(_tokencontract); \n    }\n    \n    event sell(address _buyer, uint256 _token);\n    event ProductRegistered(uint256 productId);\n    event ProductRegistrationFailed(uint256 productId);\n\n    function addProduct(uint skuId, string memory name, string memory description, uint price, uint quantity) public\n    {\n        require(products[skuId].isExist == false, \"Product Already Added\");\n        productCount+=1;\n        products[skuId].id = skuId;\n        products[skuId].name = name;\n        products[skuId].description = description;\n        products[skuId].price = price;\n        products[skuId].quantity = quantity;\n        products[skuId].productOwner = msg.sender;\n        products[skuId].isExist = true;\n        productIds.push(skuId);\n        \n    }\n    \n    function buyProduct(uint skuId) public payable\n    {\n           require(products[skuId].isExist == true, \"Product Not Exist\");\n           require(products[skuId].quantity > 0, \"Product Out of Stock\");\n           require (msg.value >= products[skuId].price , \"Insufficient Ether passed\");\n           \n           products[skuId].productUserReview[msg.sender].isBuy = true;\n           products[skuId].quantity--;\n          \n            if(msg.value > products[skuId].price)\n            {\n                msg.sender.transfer(msg.value - products[skuId].price); //extra ammount transferred\n            }\n            products[skuId].productOwner.transfer(products[skuId].price-reviewReturn); //Product price transferred to seller\"\n              msg.sender.transfer(reviewReturn); //1000 weis returned to buyer\"   \n              require(tokencontract.transfer(msg.sender,1),\"transferred Unsuccessful\");\n              emit sell (msg.sender , 1);\n            \n           \n    }\n    \n    function reviewProduct(uint skuId, string memory review) public\n    {\n           require(tokencontract.reviewtoken(msg.sender,1), \"Token check failed\"); //reviewer possess token to review\n           require(products[skuId].isExist == true, \"Product Not Exist\");\n           require(products[skuId].productUserReview[msg.sender].isBuy == true, \"You are not eligible to review this product\");\n           require(products[skuId].productUserReview[msg.sender].isReview == false, \"You have Already reviewed this product\");\n             \n           products[skuId].productUserReview[msg.sender].isReview = true;\n           products[skuId].productUserReview[msg.sender].reviewDescription = review;\n           products[skuId].productUserReview[msg.sender].timeStamp = now;\n           //tokencontract.reviewed();\n           products[skuId].reviewsCount ++;\n           products[skuId].rater = msg.sender;\n              products[skuId].reviews.push(review);\n           // require(tokencontract.burn(1), \"Burning failed\");\n           \n    }\n    \n    function getReview(uint skuId, address user) public view returns (string memory review)\n    {\n       return products[skuId].productUserReview[user].reviewDescription;\n    }\n    \n    function getAReview(uint skuId, uint index) public view returns (string memory review, address reviewer)\n    {\n       review = products[skuId].reviews[index];\n       reviewer = products[skuId].rater;\n    }\n    function getReviewsCountOfaProduct(uint skuId) public view returns (uint)\n    {\n       return products[skuId].reviewsCount;\n    }\n\n    function getAProduct(uint index) public view returns (uint skuId, string memory name, string memory description, uint256 price, uint256 quantity)\n    {\n       skuId = products[productIds[index]].id;\n       name = products[productIds[index]].name;\n       description = products[productIds[index]].description;\n       price = products[productIds[index]].price;\n       quantity = products[productIds[index]].quantity;\n       \n    }\n\n    \n    \n }",
  "sourcePath": "C:/Users/sania/Desktop/Product-Review/product-review-master/contracts/ProductReview.sol",
  "compiler": {
    "name": "solc",
    "version": "0.5.8+commit.23d335f2.Emscripten.clang"
  },
  "schemaVersion": "3.0.15",
  "updatedAt": "2019-10-07T04:46:05.606Z",
  "devdoc": {
    "methods": {}
  },
  "userdoc": {
    "methods": {}
  }
}