{
  "contractName": "PRToken",
  "abi": [
    {
      "constant": true,
      "inputs": [],
      "name": "name",
      "outputs": [
        {
          "name": "",
          "type": "string"
        }
      ],
      "payable": false,
      "stateMutability": "view",
      "type": "function"
    },
    {
      "constant": true,
      "inputs": [],
      "name": "totalSupply",
      "outputs": [
        {
          "name": "",
          "type": "uint256"
        }
      ],
      "payable": false,
      "stateMutability": "view",
      "type": "function"
    },
    {
      "constant": true,
      "inputs": [],
      "name": "standard",
      "outputs": [
        {
          "name": "",
          "type": "string"
        }
      ],
      "payable": false,
      "stateMutability": "view",
      "type": "function"
    },
    {
      "constant": true,
      "inputs": [
        {
          "name": "",
          "type": "address"
        }
      ],
      "name": "balanceOf",
      "outputs": [
        {
          "name": "",
          "type": "uint256"
        }
      ],
      "payable": false,
      "stateMutability": "view",
      "type": "function"
    },
    {
      "constant": true,
      "inputs": [],
      "name": "symbol",
      "outputs": [
        {
          "name": "",
          "type": "string"
        }
      ],
      "payable": false,
      "stateMutability": "view",
      "type": "function"
    },
    {
      "constant": true,
      "inputs": [],
      "name": "admin",
      "outputs": [
        {
          "name": "",
          "type": "address"
        }
      ],
      "payable": false,
      "stateMutability": "view",
      "type": "function"
    },
    {
      "inputs": [
        {
          "name": "_initialSupply",
          "type": "uint256"
        }
      ],
      "payable": false,
      "stateMutability": "nonpayable",
      "type": "constructor"
    },
    {
      "anonymous": false,
      "inputs": [
        {
          "indexed": true,
          "name": "_from",
          "type": "address"
        },
        {
          "indexed": true,
          "name": "_to",
          "type": "address"
        },
        {
          "indexed": false,
          "name": "_value",
          "type": "uint256"
        }
      ],
      "name": "Transfer",
      "type": "event"
    },
    {
      "anonymous": false,
      "inputs": [
        {
          "indexed": true,
          "name": "_reviewer",
          "type": "address"
        },
        {
          "indexed": false,
          "name": "_value",
          "type": "uint256"
        }
      ],
      "name": "Burn",
      "type": "event"
    },
    {
      "constant": false,
      "inputs": [
        {
          "name": "_to",
          "type": "address"
        },
        {
          "name": "_value",
          "type": "uint256"
        }
      ],
      "name": "transfer",
      "outputs": [
        {
          "name": "success",
          "type": "bool"
        }
      ],
      "payable": false,
      "stateMutability": "nonpayable",
      "type": "function"
    },
    {
      "constant": false,
      "inputs": [
        {
          "name": "reviewer",
          "type": "address"
        },
        {
          "name": "_value",
          "type": "uint256"
        }
      ],
      "name": "reviewtoken",
      "outputs": [
        {
          "name": "success",
          "type": "bool"
        }
      ],
      "payable": false,
      "stateMutability": "nonpayable",
      "type": "function"
    }
  ],
  "bytecode": "0x60806040526040518060400160405280600981526020017f50525420546f6b656e00000000000000000000000000000000000000000000008152506000908051906020019061004f9291906101d9565b506040518060400160405280600381526020017f50525400000000000000000000000000000000000000000000000000000000008152506001908051906020019061009b9291906101d9565b506040518060400160405280600f81526020017f4441707020546f6b656e2076312e300000000000000000000000000000000000815250600290805190602001906100e79291906101d9565b503480156100f457600080fd5b50604051602080610b028339810180604052602081101561011457600080fd5b810190808051906020019092919050505033600460006101000a81548173ffffffffffffffffffffffffffffffffffffffff021916908373ffffffffffffffffffffffffffffffffffffffff1602179055508060056000600460009054906101000a900473ffffffffffffffffffffffffffffffffffffffff1673ffffffffffffffffffffffffffffffffffffffff1673ffffffffffffffffffffffffffffffffffffffff16815260200190815260200160002081905550806003819055505061027e565b828054600181600116156101000203166002900490600052602060002090601f016020900481019282601f1061021a57805160ff1916838001178555610248565b82800160010185558215610248579182015b8281111561024757825182559160200191906001019061022c565b5b5090506102559190610259565b5090565b61027b91905b8082111561027757600081600090555060010161025f565b5090565b90565b6108758061028d6000396000f3fe608060405234801561001057600080fd5b50600436106100885760003560e01c806395d89b411161005b57806395d89b4114610209578063a9059cbb1461028c578063d9caf030146102f2578063f851a4401461035857610088565b806306fdde031461008d57806318160ddd146101105780635a3b7e421461012e57806370a08231146101b1575b600080fd5b6100956103a2565b6040518080602001828103825283818151815260200191508051906020019080838360005b838110156100d55780820151818401526020810190506100ba565b50505050905090810190601f1680156101025780820380516001836020036101000a031916815260200191505b509250505060405180910390f35b610118610440565b6040518082815260200191505060405180910390f35b610136610446565b6040518080602001828103825283818151815260200191508051906020019080838360005b8381101561017657808201518184015260208101905061015b565b50505050905090810190601f1680156101a35780820380516001836020036101000a031916815260200191505b509250505060405180910390f35b6101f3600480360360208110156101c757600080fd5b81019080803573ffffffffffffffffffffffffffffffffffffffff1690602001909291905050506104e4565b6040518082815260200191505060405180910390f35b6102116104fc565b6040518080602001828103825283818151815260200191508051906020019080838360005b83811015610251578082015181840152602081019050610236565b50505050905090810190601f16801561027e5780820380516001836020036101000a031916815260200191505b509250505060405180910390f35b6102d8600480360360408110156102a257600080fd5b81019080803573ffffffffffffffffffffffffffffffffffffffff1690602001909291908035906020019092919050505061059a565b604051808215151515815260200191505060405180910390f35b61033e6004803603604081101561030857600080fd5b81019080803573ffffffffffffffffffffffffffffffffffffffff169060200190929190803590602001909291905050506106c7565b604051808215151515815260200191505060405180910390f35b610360610823565b604051808273ffffffffffffffffffffffffffffffffffffffff1673ffffffffffffffffffffffffffffffffffffffff16815260200191505060405180910390f35b60008054600181600116156101000203166002900480601f0160208091040260200160405190810160405280929190818152602001828054600181600116156101000203166002900480156104385780601f1061040d57610100808354040283529160200191610438565b820191906000526020600020905b81548152906001019060200180831161041b57829003601f168201915b505050505081565b60035481565b60028054600181600116156101000203166002900480601f0160208091040260200160405190810160405280929190818152602001828054600181600116156101000203166002900480156104dc5780601f106104b1576101008083540402835291602001916104dc565b820191906000526020600020905b8154815290600101906020018083116104bf57829003601f168201915b505050505081565b60056020528060005260406000206000915090505481565b60018054600181600116156101000203166002900480601f0160208091040260200160405190810160405280929190818152602001828054600181600116156101000203166002900480156105925780601f1061056757610100808354040283529160200191610592565b820191906000526020600020905b81548152906001019060200180831161057557829003601f168201915b505050505081565b60008160056000600460009054906101000a900473ffffffffffffffffffffffffffffffffffffffff1673ffffffffffffffffffffffffffffffffffffffff1673ffffffffffffffffffffffffffffffffffffffff1681526020019081526020016000206000828254039250508190555081600560008573ffffffffffffffffffffffffffffffffffffffff1673ffffffffffffffffffffffffffffffffffffffff168152602001908152602001600020600082825401925050819055508273ffffffffffffffffffffffffffffffffffffffff163373ffffffffffffffffffffffffffffffffffffffff167fddf252ad1be2c89b69c2b068fc378daa952ba7f163c4a11628f55a4df523b3ef846040518082815260200191505060405180910390a36001905092915050565b60006001600560008573ffffffffffffffffffffffffffffffffffffffff1673ffffffffffffffffffffffffffffffffffffffff168152602001908152602001600020541461077e576040517f08c379a00000000000000000000000000000000000000000000000000000000081526004018080602001828103825260158152602001807f546f6b656e206e6f74207472616e73666572726564000000000000000000000081525060200191505060405180910390fd5b81600560008573ffffffffffffffffffffffffffffffffffffffff1673ffffffffffffffffffffffffffffffffffffffff168152602001908152602001600020600082825403925050819055508273ffffffffffffffffffffffffffffffffffffffff167fcc16f5dbb4873280815c1ee09dbd06736cffcc184412cf7a71a0fdb75d397ca5836040518082815260200191505060405180910390a26001905092915050565b600460009054906101000a900473ffffffffffffffffffffffffffffffffffffffff168156fea165627a7a723058203efd042a196077ff8516e1c449807a54e799d265402bfc59732e3a247cdfd66f0029",
  "source": "pragma solidity >=0.4.0 <=0.6.0;\r\n\r\ncontract PRToken {\r\n    string  public name = \"PRT Token\";\r\n    string  public symbol = \"PRT\";\r\n    string  public standard = \"DApp Token v1.0\";\r\n    uint256 public totalSupply;\r\n    address public admin;\r\n\r\n    event Transfer(\r\n        address indexed _from,\r\n        address indexed _to,\r\n        uint256 _value\r\n    );\r\n\r\n    event Burn(\r\n    \taddress indexed _reviewer,\r\n    \tuint256 _value\r\n    \t);\r\n    \r\n    // struct token {\r\n    // \tuint amount;\r\n    // }\r\n     mapping(address => uint256) public balanceOf;\r\n     // mapping(address => token) public tokenbalance;\r\n     \r\n      constructor (uint256 _initialSupply) public {\r\n      \tadmin = msg.sender;\r\n        balanceOf[admin] = _initialSupply;\r\n        totalSupply = _initialSupply;\r\n    }\r\n    \r\n      function transfer(address _to, uint256 _value) public returns (bool success) {\r\n        //require(balanceOf[msg.sender] >= _value);\r\n\r\n        balanceOf[admin] -= _value;\r\n        balanceOf[_to] += _value;\r\n        //tokenbalance[msg.sender].amount = _value;\r\n\r\n        emit Transfer(msg.sender, _to, _value);\r\n\r\n        return true;\r\n    }\r\n\r\n    function reviewtoken(address reviewer, uint256 _value) public returns (bool success) { \r\n    \trequire(balanceOf[reviewer] == 1, \"Token not transferred\");\r\n    \tbalanceOf[reviewer] -= _value;\r\n    \temit Burn(reviewer, _value);\r\n    \treturn true;\r\n    }\r\n\r\n    // function burn(uint256 _value) public returns (bool success) {\r\n    // \tbalanceOf[msg.sender] -= _value;\r\n    // \temit Burn(msg.sender , _value);\r\n    // \treturn true;\r\n    // }\r\n\r\n    // function reviewed() public returns (bool success){\r\n    // \tbalanceOf[msg.sender] -= 1;\r\n    // \treturn true;\r\n    // }\r\n}",
  "sourcePath": "C:\\Users\\sania\\Desktop\\Product-Review\\product-review-master\\contracts\\PRToken.sol",
  "compiler": {
    "name": "solc",
    "version": "0.5.8+commit.23d335f2.Emscripten.clang"
  },
  "schemaVersion": "3.0.15",
  "updatedAt": "2019-10-07T04:46:05.619Z",
  "devdoc": {
    "methods": {}
  },
  "userdoc": {
    "methods": {}
  }
}